:1000000095C3AFC3AEC312C4ACC3ABC3AAC3A9C329
:10001000A8C3A7C3A6C3A5C3A4C3A3C3A2C37F8108
:100020008385878A8C8E90929597999B9D9FA2A499
:10003000A6A8AAACAEB0B2B4B6B8BABCBEC0C2C470
:10004000C6C7C9CBCDCED0D2D3D5D7D8DADBDDDE8B
:10005000E0E1E3E4E5E7E8E9EAEBECEEEFF0F1F20A
:10006000F3F3F4F5F6F7F7F8F9F9FAFAFBFBFCFC11
:10007000FCFDFDFDFDFDFDFDFEFDFDFDFDFDFDFDB0
:10008000FCFCFCFBFBFAFAF9F9F8F7F7F6F5F4F3E8
:10009000F3F2F1F0EFEEECEBEAE9E8E7E5E4E3E1B7
:1000A000E0DEDDDBDAD8D7D5D3D2D0CECDCBC9C711
:1000B000C6C4C2C0BEBCBAB8B6B4B2B0AEACAAA8D0
:1000C000A6A4A29F9D9B99979592908E8C8A8785D6
:1000D00083817F7C7A787673716F6D6B68666462FA
:1000E000605E5B59575553514F4D4B49474543410E
:1000F0003F3D3B3937363432302F2D2B2A282625E9
:100100002322201F1D1C1A19181615141312110F63
:100110000E0D0C0B0A0A0908070606050404030362
:1001200002020101010000000000000000000000C8
:100130000000000001010102020303040405060699
:100140000708090A0A0B0C0D0E0F111213141516CD
:1001500018191A1C1D1F2022232526282A2B2D2F73
:100160003032343637393B3D3F41434547494B4DAB
:100170004F51535557595B5E60626466686B6D6F93
:10018000717376787A7C7E7F808183848687888A83
:100190008B8D8E8F919294959698999B9C9E9FA003
:1001A000A2A3A5A6A7A9AAACADAEB0B1B3B4B6B789
:1001B000B8BABBBDBEBFC1C2C4C5C6C8C9CBCCCE10
:1001C000CFD0D2D3D5D6D7D9DADCDDDEE0E1E3E497
:1001D000E6E7E8EAEBEDEEEFF1F2F4F5F6F8F9FB1D
:1001E000FCFEFCFBF9F8F6F5F4F2F1EFEEEDEBEACC
:1001F000E8E7E6E4E3E1E0DEDDDCDAD9D7D6D5D323
:10020000D2D0CFCECCCBC9C8C6C5C4C2C1BFBEBD7B
:10021000BBBAB8B7B6B4B3B1B0AEADACAAA9A7A6D5
:10022000A5A3A2A09F9E9C9B999896959492918F2E
:100230008E8D8B8A888786848381807F7D7C7A7986
:100240007776757372706F6E6C6B696867656462E0
:10025000615F5E5D5B5A585756545351504F4D4C39
:100260004A494746454342403F3E3C3B3938373593
:100270003432312F2E2D2B2A282726242321201FEC
:100280001D1C1A191716151312100F0E0C0B090846
:10029000070504020100010204050708090B0C0E02
:1002A0000F101213151617191A1C1D1F20212324B5
:1002B0002627282A2B2D2E2F313234353738393B3B
:1002C0003C3E3F404243454647494A4C4D4F5051C2
:1002D00053545657585A5B5D5E5F61626465676848
:1002E000696B6C6E6F707273757677797A7C7D7FCF
:1002F000FFFFFFFFFFFFFFFFFFFFFFFFFFFFFFFF0E
:10030000FFFFFFFFFFFFFFFFFFFFFFFFFFFFFFFFFD
:10031000FFFFFFFFFFFFFFFFFFFFFFFFFFFFFFFFED
:10032000FFFFFFFFFFFFFFFFFFFFFFFFFFFFFFFFDD
:10033000FFFFFFFFFFFFFFFFFFFFFFFFFFFFFFFFCD
:10034000FFFFFFFFFFFFFFFFFFFFFFFFFFFFFFFFBD
:10035000FFFFFFFFFFFFFFFFFFFFFFFFFFFFFFFFAD
:10036000FFFFFFFFFFFFFFFFFFFFFFFFFFFFFFFF9D
:10037000FFFFFFFFFFFFFFFFFFFFFFFFFFFFFFFF8D
:10038000FFFFFFFFFFFFFFFFFFFFFFFFFFFFFFFF7D
:10039000FFFFFFFFFFFFFFFFFFFFFFFFFFFFFFFF6D
:1003A000FFFFFFFF00000000000000000000000051
:1003B000000000000000000000000000000000003D
:1003C000000000000000000000000000000000002D
:1003D000000000000000000000000000000000001D
:1003E000000000000000000000000000000000000D
:1003F00000000000000000000000000000000000FD
:1004000000000000000000000000000000000000EC
:1004100000000000000000000000000000000000DC
:1004200000000000000000000000000000000000CC
:1004300000000000000000000000000000000000BC
:1004400000000000000000000000000000000000AC
:10045000000000000000000000000205080B0E1163
:100460001316191C1F2224272A2D303335383B3E02
:10047000414446494C4F5255575A5D606366686B1C
:100480006E717477797C7F8285888A8D9093969936
:100490009B9EA1A4A7AAACAFB2B5B8BBBDC0C3C652
:1004A000C9CCCED1D4D7DADDDFE2E5E8EBEEF0F36C
:1004B000F6F9FCFF0205080B0E111316191C1F227A
:1004C00024272A2D303335383B3E414446494C4F92
:1004D0005255575A5D606366686B6E717477797CAC
:1004E0007F8285888A8D909396999B9EA1A4A7AAC6
:1004F000ACAFB2B5B8BBBDC0C3C6C9CCCED1D4D7E2
:10050000DADDDFE2E5E8EBEEF0F3F6F9FCFF0205F9
:10051000080B0E111316191C1F2224272A2D303305
:1005200035383B3E414446494C4F5255575A5D6021
:100530006366686B6E717477797C7F8285888A8D3B
:10054000909396999B9EA1A4A7AAACAFB2B5B8BB55
:10055000BDC0C3C6C9CCCED1D4D7DADDDFE2E5E871
:10056000EBEEF0F3F6F9FCFF0205080B0E11131683
:10057000191C1F2224272A2D303335383B3E414495
:1005800046494C4F5255575A5D606366686B6E71B1
:100590007477797C7F8285888A8D909396999B9ECB
:1005A000A1A4A7AAACAFB2B5B8BBBDC0C3C6C9CCE5
:1005B000CED1D4D7DADDDFE2E5E8EBEEF0F3F6F901
:1005C000FCFF2AA325D0968482C0FA062CFB6F6E0E
:1005D00046C47E67EAE753E82B33E4EFC0FDB8B6C4
:1005E000F7AB0472B4745D372049BB1BE435F72ABE
:1005F000800E824894CD9496BD6D8578DA9386C836
:1006000046F9745FF3D80178EF2EE41A2F48500BA7
:1006100035565E7D7B64AEF5179DFA90991EBB4200
:10062000993AB519E98F922FE5B34950DBDB82F790
:100630000453BDB8FA2365AF3FAC8C0CA1A5954E11
:100640002445685344F587C81C66A317625BFD5FA9
:10065000AF0537B11549E0F665C86AC43FFAB89FDF
:100660003E3D19CA592DBF3BD71B9ACAE3FC9B3AA2
:1006700028AF4A2974DDB683E06BAB9D66B7327450
:100680006A8D37442822810483ECB7D229BD9E09A4
:1006900081E15AE76CAFE09831555281B43D778DD6
:1006A00050E71D8D56867C28B1406F9EA162ACD16B
:1006B000F971B6BEF556C1FFFD8D43626EB4643963
:1006C000C3460E7833D6C63620C01EA36678D9241A
:1006D000F57E9586B331250A1664513B7F0F3E495E
:1006E000BCE932E4B456DF43B064086138559C1964
:1006F000046D1520F0663D91717232107B06B21BBD
:100700005C5F9CB5790FADED6E65595F7E16D74F76
:10071000D8EB39739EE6A6F72F9787E9A01AD690F3
:10072000EC7647D7C8D4815A8E49240011241FBEC5
:10073000CFE5D2E0DEBFCDBF10E0A0E6B0E0EAEC4E
:10074000F9E002C005900D92A436B107D9F710E088
:10075000A4E6B0E001C01D92A636B107E1F79BD038
:1007600032C14ECCF894B99AC19883E28ABD81E037
:1007700083BF12BE19BC18BC80E880BF1CBC1FBC64
:100780001EBC1BBC1DBC80E489BF82E087BD0895F0
:1007900012BE83B7816083BF1FBC89B7806489BFE5
:1007A00078940895BF92CF92DF92EF92FF920F93C9
:1007B0001F93CF93DF939B01AC0160E074E284EF61
:1007C00090E0DFD0B22EC32ED42E052FC1E0D0E0B2
:1007D00081E0E82EF12C1C2F97010C2E02C0220F75
:1007E000331F0A94E2F740E050E06B2D7C2D8D2DF5
:1007F000902FC7D0215030402F3F310541F038F0C5
:100800001F5F2196C031D10531F72FEF30E02EBDAB
:1008100080B7807F182B10BFDF91CF911F910F9170
:10082000FF90EF90DF90CF90BF9008951F920F92AE
:100830000FB60F9211242F938F939F93EF93FF93F3
:100840008091620090916300E0916400F0916500F6
:10085000E80FF91FE491E8BD809164009091650074
:10086000019690936500809364008091640090915C
:1008700065008956914020F0109265001092640046
:100880001FBCFF91EF919F918F912F910F900FBE01
:100890000F901F901895EF92FF920F931F93CF9395
:1008A000DF93B89AC09820E031E040E951E088B386
:1008B000832788BB80ED97E0FA013197F1F7019724
:1008C000D9F72F5F253099F74DDF60E47FE180E0B5
:1008D00090E068DF5DDF41E08EE1E82E80E0F82EF9
:1008E00020E931E007E811E0C0EFD2E0A9E5B4E08B
:1008F00062EC75E088B3842788BBF0926300E092D5
:10090000620080E29EE4F9013197F1F70197D9F78F
:1009100088B3842788BB109363000093620080E251
:100920009EE4F9013197F1F70197D9F788B384274D
:1009300088BBD0936300C093620080E29EE4F9011B
:100940003197F1F70197D9F788B3842788BBB09323
:100950006300A093620080E29EE4F9013197F1F711
:100960000197D9F788B3842788BB7093630060939D
:10097000620080E29EE4F9013197F1F70197D9F71F
:10098000B9CFA1E21A2EAA1BBB1BFD010DC0AA1FE5
:10099000BB1FEE1FFF1FA217B307E407F50720F0E8
:1009A000A21BB30BE40BF50B661F771F881F991F63
:1009B0001A9469F760957095809590959B01AC01AC
:0A09C000BD01CF010895F894FFCFA8
:0409CA0069011E00A1
:00000001FF
